:020000040800F2
:10000000300700209D0100081D2B00087921000801
:10001000752A0008E103000875330008000000009D
:100020000000000000000000000000005B2B000842
:10003000E503000800000000592B00085D2B0008B4
:10004000B7010008B7010008B7010008B7010008B0
:10005000B7010008B7010008B7010008B7010008A0
:10006000B7010008B7010008B7010008B701000890
:10007000B7010008B7010008B7010008B701000880
:10008000B7010008B7010008B7010008B701000870
:10009000B7010008B7010008B7010008B701000860
:1000A000B7010008B7010008B7010008B701000850
:1000B000B7010008B7010008B7010008B701000840
:1000C000B7010008B7010008B7010008B701000830
:1000D000B7010008B7010008B7010008B701000820
:1000E000B7010008B7010008B7010008B701000810
:1000F000B7010008B7010008B7010008B701000800
:10010000B7010008B7010008B7010008B7010008EF
:10011000B7010008B7010008B7010008B7010008DF
:10012000B7010008B7010008B7010008B7010008CF
:10013000B7010008B7010008B7010008B7010008BF
:10014000B7010008B7010008B7010008B7010008AF
:10015000B7010008B7010008B7010008B70100089F
:10016000B7010008B7010008B7010008B70100088F
:10017000B7010008B7010008B7010008000000003F
:10018000B7010008B7010008DFF80CD000F068F8EC
:10019000004800479D33000830070020064880478C
:1001A00006480047FEE7FEE7FEE7FEE7FEE7FEE75C
:1001B000FEE7FEE7FEE7FEE7812C00088901000864
:1001C0002DE9F05F0546002092469B46884606468C
:1001D000814640241BE0284641464746224600F01F
:1001E0002FF853465A46C01A914110D3114618466B
:1001F000224600F016F82D1A67EB01084F462246FA
:100200000120002100F00DF817EB00094E41201EDF
:10021000A4F10104DFDC484631462A464346BDE8E6
:10022000F09F202A04DB203A00FA02F100207047F8
:100230009140C2F1200320FA03F319439040704724
:10024000202A04DB203A21FA02F00021704721FA2B
:1002500002F3D040C2F12002914008431946704792
:10026000064C074D06E0E06840F0010394E8070003
:1002700098471034AC42F6D3FFF78AFFBC3400082D
:10028000DC34000854494A6822F440324A604A6823
:1002900043681A434A600268526822F48072036815
:1002A0005A6002685368026943EA022203685A608E
:1002B0000268526822F0407203685A60026852680D
:1002C00083681A4303685A600268926822F40062E5
:1002D00003689A6002689268C3681A4303689A6068
:1002E0003E4B826A9A4218D00268926822F070628D
:1002F00003689A6002689268836A1A4303689A6086
:100300000268926822F0405203689A60026892681C
:10031000C36A1A4303689A600BE00268926822F08D
:10032000706203689A600268926822F04052036823
:100330009A600268926822F0020203689A6002687A
:100340009368826943EA420203689A60026AA2B132
:100350000268526842F4006203685A600268526898
:1003600022F4604203685A6002685368426A521E6F
:1003700043EA423203685A6005E00268526822F498
:10038000006203685A600268D26A22F4700203684D
:10039000DA620268D36A828B521E43EA0252036811
:1003A000DA620268926822F4007203689A60026856
:1003B0009368026B43EA422203689A60026892687B
:1003C00022F4806203689A6002689368426943EA93
:1003D000822203689A607047002301400100000FE9
:1003E00000BFFEE77047000038B5024600200090CD
:1003F00000BF92F83C00012801D1022038BD012045
:1004000082F83C0000BF0868092816D91068C06847
:100410000C780A3C04EB44050724AC40A043146864
:10042000E0600C780A3C04EB44048868A04014683F
:10043000E46820431468E06013E0106800690C78F9
:1004400004EB44050724AC40A043146820610C78F9
:1004500004EB44048868A0401468246920431468AD
:1004600020614868072817D21068406B0C79641E19
:1004700004EB84051F24AC40A04314686063088823
:1004800080B20C79641E04EB8404A0401468646B91
:1004900020431468606331E048680D2817D2106863
:1004A000006B0C79E41F04EB84051F24AC40A043CF
:1004B00014682063088880B20C79E41F04EB84047C
:1004C000A0401468246B20431468206316E0106871
:1004D000C06A0C790D3C04EB84051F24AC40A0439A
:1004E0001468E062088880B20C790D3C04EB840447
:1004F000A0401468E46A20431468E062194B1A4C67
:100500001068A04206D10868122803D1586840F448
:1005100080005860144C1068A0421CD10868102854
:1005200002D00868112816D1586840F400005860BD
:10053000086810280FD10D4800680D4CB0FBF4F08E
:1005400000EB80004000009002E00098401E009008
:1005500000980028F9D100BF002082F83C0000BFBD
:1005600000BF4BE7002301400020014004000020B1
:1005700040420F0070B5044600250CB9012070BD43
:100580001549A06A884200D000BF206C30B9002015
:10059000606484F83C00204600F020F8206C00F0F5
:1005A000100088B9206C20F4885040F002002064CC
:1005B0002046FFF767FE00206064206C20F00200F8
:1005C00040F00100206400E0012500BF002084F815
:1005D0003C0000BF2846D2E70100000F10B586B0EE
:1005E00004462049206888421AD100BF00200090AC
:1005F0001D48006840F480701B4908600846006888
:1006000000F48070009000BF00BF3F2001900320E5
:1006100002900020039001A9144800F0D1FB1EE0D5
:100620001349206888421AD100BF002000900E486C
:10063000006840F480600C4908600846006800F4D7
:100640008060009000BF00BF4FF4FC700190032059
:1006500002900020039001A9064800F0B1FB06B00B
:1006600010BD000000200140443802400008024054
:10067000002201400014024070B504460A460023DF
:10068000157D012000FA05F33C4901F50071086869
:1006900040F001000860086820F47C500860086899
:1006A000556A40EA05200860C8699843C861A1F509
:1006B0000071D069C8B9D1F80C029843C1F80C0296
:1006C000908880B2958940EA054501F51070566919
:1006D00040F83650108880B2158940EA054501F58A
:1006E0001070566900EBC6004560D069012819D129
:1006F000D1F80C021843C1F80C02908880B215881A
:1007000040EA054501F51070566940F83650908969
:1007100080B2158940EA054501F51070566900EB75
:10072000C6004560906928B9D1F804029843C1F821
:10073000040204E0D1F804021843C1F8040210696D
:1007400020B9D1F814029843C1F8140210690128A5
:1007500004D1D1F814021843C1F81402106A012818
:1007600004D1D1F81C021843C1F81C02D1F80002D0
:1007700020F00100C1F80002002070BD00640040BC
:1007800070B50446002600250CB9012070BD94F810
:100790003C0028B9002084F83D00204600F0CEF847
:1007A000022084F83C002068006820F002002168E4
:1007B00008602068006840F001002168086000F0CF
:1007C00005FC05460EE000F001FC401B0A2809D993
:1007D000032084F83C0000BF002084F83D0000BFE7
:1007E0000320D3E72068406800F001000028EAD029
:1007F0002068406800F00100002875D0A069012839
:1008000006D12068006840F080002168086005E09B
:100810002068006820F0800021680860E0690128F5
:1008200006D12068006840F040002168086005E0BB
:100830002068006820F0400021680860206A0128D4
:1008400006D12068006840F020002168086005E0BB
:100850002068006820F0200021680860606A012894
:1008600006D12068006840F010002168086005E0AB
:100870002068006820F0100021680860A06A012844
:1008800006D12068006840F008002168086005E093
:100890002068006820F0080021680860E06A0128EC
:1008A00006D12068006840F004002168086005E077
:1008B0002068006820F0040021680860D4E9020183
:1008C000084321690843616908436168491E084378
:1008D0002168C8612068006820F001002168086074
:1008E00000F074FB05460FE01AE000F06FFB401BC0
:1008F0000A2809D9032084F83C0000BF002084F8AE
:100900003D0000BF032041E72068406800F001007F
:100910000028EAD12068406800F0010000B90126F3
:10092000012E06D100202064012084F83C00002024
:100930002CE7042084F83C00012027E710B586B09E
:10094000044635492068884227D134480068401C55
:10095000324908600846006801280FD100BF002016
:1009600000902F48006840F000702D49086008464C
:10097000006800F00070009000BF00BF03200190ED
:10098000022002900020039003200490092005908B
:1009900001A9244800F014FA3BE02349206888426A
:1009A00037D100BF002000901D48006840F08060F3
:1009B0001B4908600846006800F08060009000BF96
:1009C00000BF16480068401C1449086008460068CB
:1009D00001280FD100BF002000901148006840F0AE
:1009E00000700F4908600846006800F00070009031
:1009F00000BF00BF4FF44050019002200290002041
:100A00000390032004900920059001A9074800F0F5
:100A1000D7F906B010BD0000006400400C000020B3
:100A200040380240000C02400068004000040240D0
:100A30002DE9F04104460E46042500272068806811
:100A400000F08060B0F1806F0DD02068806800F009
:100A50000060B0F1006F06D02068806800F0805020
:100A6000B0F1805F7DD100BF94F83D00012802D134
:100A70000220BDE8F081012084F83D0000BF94F819
:100A80003C00222804D0322806D062280CD107E08E
:100A9000422084F83C000BE0522084F83C0007E040
:100AA000722084F83C0003E0122084F83C0000BF70
:100AB00000BF2068806800F08060B0F1806F01D1D5
:100AC000002509E02068806800F00060B0F1006F48
:100AD00001D1012500E00225206800F5C07000EB7F
:100AE0000510006800F00101206800F5C07000EBFF
:100AF00005100160206B806898B9206800F5C0700F
:100B000000EB05100068216BC968226B128841EA6E
:100B100042510843216801F5C07101EB05110860DD
:100B200015E0206800F5C07000EB05100068216B2F
:100B30008968226B526841EAC201226BD268114374
:100B40000143206800F5C07000EB05100160206BC8
:100B5000007C00F00F00216B0861206800F5C07078
:100B600000E0B6E000EB0510406820F00F012068BF
:100B700000F5C07000EB05104160206800F5C07002
:100B800000EB05104068216B09690843216801F5F5
:100B9000C07101EB05114860206BC07D0106206B20
:100BA000807D41EA0041206B407D41EA0020216BBD
:100BB000097D0843216801F5C07101EB05118860CA
:100BC000206BC07E0106206B807E41EA0041206BD5
:100BD000407E41EA0021206B007E0143206800F541
:100BE000C07000EB0510C160206800F5C07000EB1C
:100BF0000510006840F00101206800F5C07000EBAE
:100C00000510016000F0E2F9074620E0701CF0B129
:100C100026B100F0DBF9C01BB04218D9032084F8DC
:100C20003C001DB980202168886009E0012D03D1B6
:100C3000E8032168886003E04FF4000021688860C1
:100C400000BF002084F83D0000BF032011E74DB92C
:100C50002068806821490840884201D1012016E0BF
:100C6000002014E0012D09D1206880681C4908404B
:100C7000884201D101200AE0002008E02068806855
:100C800018490840884201D1012000E000200028D6
:100C9000BCD094F83C00422804D0522806D07228D8
:100CA0000CD107E0222084F83C000BE0322084F8CD
:100CB0003C0007E0622084F83C0003E0012084F857
:100CC0003C0000BF00BF00BF002084F83D0000BF13
:100CD000CFE6042084F83C000120CAE603000004AB
:100CE000000300080000031070B50346002400252F
:100CF00000BF5879012801D1022070BD0120587130
:100D000000BF022018711868046840F6FE70904019
:100D10008443D1E9000640EA060505FA02F00443DF
:100D20001868046018680668C020904086431868F8
:100D300006600120187100BF0020587100BF00BF7D
:100D4000DBE710B504460CB9012010BD207920B9AD
:100D500000206071204600F009F802202071002078
:100D60002061012020710020EFE7000010B586B05F
:100D7000044610492068884219D100BF0020009025
:100D80000D48006840F000500B49086008460068B4
:100D900000F00050009000BF00BF30200190032001
:100DA00002900020039001A9044800F009F806B061
:100DB00010BD0000007400404038024000000240B6
:100DC000F8B502460B460025002400200021DCE097
:100DD000012606FA01F51E6806EA0504AC4273D145
:100DE0005E68022E02D05E68122E13D1CF0802F187
:100DF000200656F827004E07F70E0F26BE40B043D8
:100E00004F07FF0E1E69BE403043CF0802F1200697
:100E100046F8270010684F000326BE40B0431E79F5
:100E200006F003064F00BE40304310605E68012E9E
:100E300008D05E68022E05D05E68112E02D05E6872
:100E4000122E13D190684F000326BE40B0434F00CE
:100E5000DE68BE4030439060506801268E40B0434B
:100E60001E79C6F300168E4030435060D0684F00A4
:100E70000326BE40B0434F009E68BE403043D06062
:100E80005E6806F08056B6F1805F7DD100BF002617
:100E90000096404E366846F480463E4F3E603E46E1
:100EA000366806F48046009600BF00BF3A4E8F08B1
:100EB00056F827008E07370F0F26BE40B043374E37
:100EC000B24202D1002624E05EE0354EB24201D1AA
:100ED00001261EE0334EB24201D1022619E0324E05
:100EE000B24201D1032614E0304EB24201D10426B1
:100EF0000FE02F4EB24201D105260AE02D4EB2423C
:100F000001D1062605E02C4EB24201D1072600E0B1
:100F100008268F073F0FBE4030431F4E8F0846F80C
:100F20002700264E3068A0435E6806F48036B6F58A
:100F3000803F00D12043214E3060361D3068A043F1
:100F40005E6806F40036B6F5003F00D120431B4E24
:100F5000361D3060361D3068A0435E6806F480168A
:100F6000B6F5801F00D12043144E08363060361D80
:100F70003068A0435E6806F40016B6F5001F00D185
:100F800020430E4E0C363060491C1029FFF420AF70
:100F9000F8BD00004438024008380140000002401B
:100FA0000004024000080240000C02400010024011
:100FB0000014024000180240001C0240003C0140A6
:100FC0000AB1816101E00B04836170470148006848
:100FD000704700000000002002480068401C0149E2
:100FE000086070470000002010B50D48006840F40C
:100FF00000700B4908600846006840F48060086093
:101000000846006840F480700860032000F088F80B
:10101000002000F007F800F019F8002010BD0000D3
:10102000003C024070B50446074800684FF47A71EE
:10103000B0FBF1F5284600F012FD00222146501EBB
:1010400000F02FF8002070BD0400002010B5032030
:1010500000F066F8002211466FF00B0000F021F856
:10106000002211466FF00A0000F01BF80022114622
:101070006FF0090000F015F800221146501F00F033
:1010800010F800221146101F00F00BF80022114644
:10109000901E00F006F800221146501E00F001F8E4
:1010A00010BD2DE9F05F80460D461646002701F081
:1010B00037FD074639462A46334601F00700C0F19E
:1010C000070ABAF1040F02D94FF0040A01E0C0F197
:1010D000070AD14600F1040ABAF1070F02D24FF015
:1010E000000A01E0A0F1030AD4464FF0010A0AFA0F
:1010F00009FAAAF1010A0AEA020A0AFA0CFA4FF0FE
:10110000010B0BFA0CFBABF1010B0BEA030B4AEAE8
:101110000B042146404601F00BFDBDE8F09F0000A6
:1011200000BF00F00702064B19684FF6FF03194095
:10113000044B0B4343EA0221014B196000BF704787
:101140000CED00E00000FA05F8B504460025002685
:10115000207800F0010020B9207800F00400042875
:101160002FD100205B498866FFF730FF054606E077
:10117000FFF72CFF401B022801D90320F8BD564879
:101180000068C0F3C0600028F2D160688101207A55
:1011900041EA007050498431086001204D49886659
:1011A000FFF714FF054606E0FFF710FF401B02287B
:1011B00001D90320E2E748480068C0F3C060002876
:1011C000F2D0207800F0020002287DD100BF00207C
:1011D000009041484030006840F080503E49403126
:1011E00008600846006800F08050009000BF00BF13
:1011F0003A48006840F4807038490860FFF7E6FE1E
:10120000054606E0FFF7E2FE401B022801D9032055
:10121000B4E73248006800F480700028F2D02E480D
:101220007030006800F440764EB3A08900F440703E
:10123000B04224D028487030006820F44076012065
:101240002749086000200860234870300660006865
:1012500000F0010098B1FFF7B9FE054608E0FFF77E
:10126000B5FE401B41F28831884201D9032085E751
:10127000194870300068C0F340000028EFD000BF6C
:10128000A08900F44070B0F5407F0CD112480830BE
:10129000006820F4F810134AE168114008430E4931
:1012A0000831086007E00C480830006820F4F810A6
:1012B000094908310860084870300068A189C1F305
:1012C0000B010843044900E002E07031086000BFF0
:1012D000002053E700004742003802400070004001
:1012E000400E4742FFFCFF0F70B504460D460CB997
:1012F000012070BD5848006800F00F00A84209D2D4
:1013000055490D700846006800F00F00A84201D052
:101310000120EEE7207800F0020002281DD120789D
:1013200000F00400042805D14C48006840F4E05067
:101330004A490860207800F00800082805D147488D
:10134000006840F46040454908604448006820F067
:10135000F000A168084341490860207800F00100CE
:10136000A8B36068012807D13C4808380068C0F37A
:101370004040B8B90120BCE76068022802D060682C
:10138000032807D1354808380068C0F3406048B9E1
:101390000120AEE7314808380068C0F3400008B9C2
:1013A0000120A6E72D48006820F00300616808438B
:1013B0002A490860FFF70AFE064609E0FFF706FE25
:1013C000801B41F28831884202D9032091E707E06F
:1013D0002248006800F00C006168B0EB810FEDD18D
:1013E0001D48006800F00F00A84209D91A490D7085
:1013F0000846006800F00F00A84201D0012078E7FD
:10140000207800F00400042807D11448006820F474
:10141000E050E168084311490860207800F00800B6
:10142000082808D10D48006820F46040216940EA8E
:10143000C1000A49086000F03DF808490968C1F395
:101440000311074A515CC840064908600020FFF7B5
:10145000E9FD00204DE70000003C02400838024052
:10146000A434000804000020014800687047000010
:101470000400002000B5FFF7F7FF04490968C1F335
:101480008221034A515CC84000BD00000838024078
:10149000B434000800B5FFF7E7FF04490968C1F359
:1014A0004231034A515CC84000BD00000838024088
:1014B000B43400082DE9F047002400250026A14699
:1014C0002548006800F00C0020B1042805D0082849
:1014D0003AD105E0DFF8849039E0DFF8849036E017
:1014E0001D48001F006800F03F041B48001F0068F3
:1014F00000F4800078B11A481749091F0968C1F340
:101500008811A0FB01700146224600233846FEF7F1
:1015100057FE05460EE011480F49091F0968C1F33F
:101520008811A0FB01700146224600233846FEF7D1
:1015300047FE05460848001F0068C0F30140401CF4
:101540004600B5FBF6F902E0DFF8109000BF00BFDF
:101550004846BDE8F0870000083802400024F40047
:1015600000127A0070B586B006460C46154646BB9A
:1015700000BF002000902848006840F00100264984
:1015800008600846006800F00100009000BF00BF3E
:1015900088150190022002900320049000200390FF
:1015A000059001A91D48FFF70BFC1B48283800686F
:1015B00020F0EC6044EA0501084317492839086027
:1015C00027E000BF002000901348006840F00400AE
:1015D000114908600846006800F00400009000BF50
:1015E00000BF4815019002200290032004900020C3
:1015F0000390059001A90A48FFF7E2FB0648283846
:10160000006820F0784044EAC501084302492839BF
:10161000086006B070BD0000303802400000024093
:101620000008024038B504460CB9012038BD2078C6
:1016300000F00100002874D0F848006800F00C00A9
:1016400004280DD0F548006800F00C00082813D1DC
:10165000F248001F006800F48000B0F5800F0BD145
:10166000EE4808380068C0F34040002859D0606850
:10167000002856D10120D9E700BF6068B0F5803F4F
:1016800008D1E6480838006840F48030E34908395A
:1016900008601EE06068B0F5A02F0DD1DF48083863
:1016A000006840F48020DD49083908600846006879
:1016B00040F4803008600CE0D8480838006820F416
:1016C0008030D649083908600846006820F4802038
:1016D000086000BF606890B1FFF778FC054606E03F
:1016E000FFF774FC401B642801D903209EE7CB4818
:1016F00008380068C0F340400028F1D011E0FFF73F
:1017000065FC054606E0FFF761FC401B642801D933
:1017100003208BE7C14808380068C0F34040002828
:10172000F1D1207800F0020002285FD1BB480068A8
:1017300000F00C0058B1B948006800F00C0008280F
:101740001CD1B648001F006800F48000B0B9B3484F
:1017500008380068C0F3400020B1E068012801D0DB
:10176000012063E7AD480838006820F0F8002169DF
:1017700040EAC100A9490839086037E0E06800B3D1
:101780000120A7490860FFF721FC054606E0FFF7A6
:101790001DFC401B022801D9032047E79F48083859
:1017A0000068C0F340000028F1D09C480838006869
:1017B00020F0F800216940EAC10098490839086022
:1017C00014E0002096490860FFF700FC054606E09B
:1017D000FFF7FCFB401B022801D9032026E78F48B6
:1017E00008380068C0F340000028F1D1207800F0EC
:1017F000080008282CD16069A8B101208949086037
:10180000FFF7E4FB054606E0FFF7E0FB401B02287C
:1018100001D903200AE781486C300068C0F340001A
:101820000028F1D014E000207E490860FFF7CEFBCD
:10183000054606E0FFF7CAFB401B022801D903203A
:10184000F4E676486C300068C0F340000028F1D11F
:10185000207800F0040004287FD100BF0020009011
:101860006E483830006840F080506C49383108606C
:101870000846006800F08050009000BF00BF6A4832
:10188000006840F4807068490860FFF79FFB0546D8
:1018900006E0FFF79BFB401B022801D90320C5E6A9
:1018A0006148006800F480700028F2D000BFA06892
:1018B000012808D159486830006840F001005749B4
:1018C000683108601DE0A06805280DD153486830D4
:1018D000006840F00400514968310860084600681B
:1018E00040F0010008600CE04C486830006820F0CF
:1018F00001004A49683108600846006820F0040089
:10190000086000BFA068A0B1FFF760FB054608E0D3
:10191000FFF75CFB401B41F28831884201D903206C
:1019200084E63E4868300068C0F340000028EFD0ED
:1019300013E0FFF74BFB054608E0FFF747FB401BB2
:1019400041F28831884201D903206FE6334868307C
:101950000068C0F340000028EFD1A069B8B32F4859
:10196000006800F00C00082860D0A06902283ED171
:1019700000202B490866FFF729FB054606E0FFF724
:1019800025FB401B022801D903204FE623480838D5
:101990000068C0F340600028F1D1D4E90701084392
:1019A000616A40EA81110122A06AC2EB500041EA5B
:1019B00000412C20005D41EA00601849091F0860C1
:1019C000012017490866FFF701FB054607E02FE0F5
:1019D000FFF7FCFA401B022801D9032026E60F4836
:1019E00008380068C0F340600028F1D020E00020F3
:1019F0000B490866FFF7EAFA054606E0FFF7E6FA44
:101A0000401B022801D9032010E60448083800686A
:101A1000C0F340600028F1D10AE007E00838024036
:101A200000004742800E4742007000400120FDE563
:101A30000020FBE5042808D14FF0E021096941F0BE
:101A400004014FF0E022116107E04FF0E021096945
:101A500021F004014FF0E02211617047704770B52A
:101A600004462546681EB0F1807F01D301200FE0B7
:101A7000681E4FF0E02148610F214FF0FF3001F068
:101A800057F800204FF0E02188610720086100200E
:101A900070BD10B5FFF7E2FF10BD10B50346002280
:101AA00000BF93F83800012801D1022010BD0120A9
:101AB00083F8380000BF22F0FF00CC6840EA04023F
:101AC00022F440708C6840EA040222F480604C6882
:101AD00040EA040222F400600C6840EA040222F4A6
:101AE00080500C6940EA040222F400504C6940EA3C
:101AF000040222F480408C6940EA040222F400408F
:101B00008C6940EA04021868426400BF002083F830
:101B1000380000BF00BFC9E7024600BF92F8380096
:101B2000012801D102207047012082F8380000BF4F
:101B3000022082F839001068406820F070001368B5
:101B40005860106840680B68184313685860106844
:101B5000806820F0800013689860106880684B6887
:101B6000184313689860012082F8390000BF0020F4
:101B700082F8380000BF00BFD5E710B504460CB9A5
:101B8000012010BD94F8390028B9002084F83800ED
:101B9000204600F00DF8022084F83900211D20684D
:101BA00001F0A0F8012084F839000020E9E70000E6
:101BB00008B52B4A016891420FD100BF0021009166
:101BC0002849096841F00101264A11601146096857
:101BD00001F00101009100BF41E00168B1F1804FC7
:101BE00011D100BF002100911E49091F096841F071
:101BF00001011C4A121F11601146096801F0010120
:101C0000009100BF2BE0184A0168914211D100BF3A
:101C1000002100911349091F096841F00201114A8E
:101C2000121F11601146096801F00201009100BF06
:101C300015E00E4A0168914211D100BF00210091C8
:101C40000849091F096841F00401064A121F116082
:101C50001146096801F00401009100BF00BF08BDF2
:101C600000000140443802400004004000080040E9
:101C70002DE9F04104460D46002600BF94F83800D7
:101C8000012802D10220BDE8F081012084F838004B
:101C900000BF022084F839002068866826F07706A5
:101CA00026F47F4620688660286850283BD00CDCEC
:101CB000202860D004DC002853D0102865D155E0DE
:101CC00030285DD0402860D141E0602835D07028B0
:101CD0000DD0B0F5805F03D0B0F5005F55D115E0B1
:101CE0002068806820F00700216888604EE0D5E910
:101CF00002136A68206801F067F82068866826F099
:101D0000770646F07706206886603FE0D5E9021343
:101D10006A68206801F058F82068806840F48040C4
:101D20002168886032E0EA686968206801F042F959
:101D30005021206801F054F828E0EA6869682068BA
:101D400001F04DF96021206801F04AF81EE0EA68D0
:101D50006968206801F02EF94021206801F040F800
:101D600014E00021206801F03BF80FE0102120680A
:101D700001F036F80AE02021206801F031F805E092
:101D80003021206801F02CF800E000BF00BF0120E6
:101D900084F8390000BF002084F8380000BF00BF7D
:101DA00071E7000010B586B004462C4920688842CF
:101DB0000ED14FF4D44001900220029000200390F5
:101DC00004900120059001A92548FEF7F9FF42E0A3
:101DD0002068B0F1804F0DD10F20019002200290B9
:101DE0000020039004900120059001A91D48FEF7F2
:101DF000E7FF30E01C49206888421AD1C0200190DA
:101E0000022002900020039004900220059001A976
:101E10001448FEF7D5FF0320019002200290002015
:101E2000039004900220059001A91048FEF7C8FF16
:101E300011E00F49206888420DD14FF470400190A5
:101E4000022002900020039004900220059001A936
:101E50000848FEF7B5FF06B010BD000000000140C5
:101E60000010024000000240000400400004024054
:101E700000080040000C024070B504460D461646AE
:101E800000BF94F83800012801D1022070BD012064
:101E900084F8380000BF022084F8390036B1042EDF
:101EA0001BD0082E31D00C2E5ED145E0294620688B
:101EB00000F0A0FF2068806940F008002168886178
:101EC0002068806920F004002168886120688069AA
:101ED000296908432168886147E02946206800F0A5
:101EE000C1FF2068806940F4006021688861206833
:101EF000806920F480602168886120688069296990
:101F000040EA0120216888612FE02946206800F01E
:101F1000E5FF2068C06940F008002168C8612068BA
:101F2000C06920F004002168C8612068C06929697F
:101F300008432168C86118E02946206801F00AF8C2
:101F40002068C06940F400602168C8612068C069E9
:101F500020F480602168C8612068C069296940EA6E
:101F600001202168C86100E000BF00BF012084F8A3
:101F7000390000BF002084F8380000BF00BF85E7AB
:101F800010B504460CB9012010BD94F8390028B9E9
:101F9000002084F83800204600F00CF8022084F875
:101FA0003900211D206800F09DFE012084F83900D1
:101FB0000020E9E7704710B504460CB9012010BDB8
:101FC000A06900B100E000BF94F8390028B90020F2
:101FD00084F83800204600F027F8242084F83900DF
:101FE0002068C06820F400502168C860204601F0D5
:101FF0000DF82068006920F490402168086120688D
:10200000406920F02A00216848612068C06840F4D7
:1020100000502168C8600020E063202084F8390067
:1020200084F83A000020CAE710B586B004464A4951
:10203000206888421FD100BF0020009047480068F8
:1020400040F01000454908600846006800F01000A4
:10205000009000BF00BF4FF4C060019002200290CA
:1020600001200390032004900720059001A93C481B
:10207000FEF7A6FE6DE03B492068884220D100BFF4
:10208000002000903548001F006840F400303349BC
:10209000091F08600846006800F40030009000BF87
:1020A00000BF6020019002200290012003900320D5
:1020B00004900720059001A92B48FEF781FE48E017
:1020C0002A492068884221D100BF0020009023487F
:1020D000001F006840F480202049091F086008465E
:1020E000006800F48020009000BF00BF4FF44070F3
:1020F0000190022002900120039003200490072009
:10210000059001A91848FEF75BFE22E018492068F7
:1021100088421ED100BF002000901048006840F0A7
:1021200020000E4908600846006800F0200000907A
:1021300000BF00BF4FF484400190022002900120B4
:102140000390032004900820059001A90948FEF798
:1021500037FE06B010BD00000010014044380240B8
:102160000000024000440040000C024000480040D3
:10217000001401400018024000BFFEE71FB51848D8
:10218000184908604FF440304860002115488160CC
:10219000016181610162C162134981620021C160F4
:1021A0000121C1610021016301214161FEF7E2F9D2
:1021B00020B14FF49A710DA001F0DEF80A200090D2
:1021C000012001900720029069460648FEF70CF9AD
:1021D00020B14FF49F7105A001F0CEF81FBD0000A3
:1021E00000200140100000200100000F2E2E2F5370
:1021F00072632F6D61696E2E630000001FB5184871
:10220000184908604FF4403048600021154881604B
:10221000016181610162C162134981620021C16073
:102220000121C1610021016301214161FEF7A2F991
:1022300020B14FF4AC710DA001F09EF80420009085
:10224000012001900720029069460648FEF7CCF86D
:1022500020B14FF4B17105A001F08EF81FBD000050
:1022600000220140580000200100000F2E2E2F53A5
:1022700072632F6D61696E2E6300000010B50F4808
:102280000F4908600420486000210D488160C1604A
:102290004FF4802101618900416100218161C161A8
:1022A000016241628162C162FEF76AFA20B14FF4B5
:1022B000BC7104A001F060F810BD00000064004093
:1022C000A00000202E2E2F5372632F6D61696E2E99
:1022D0006300000010B50F480F49086004204860F3
:1022E00000210D488160C1604FF4802101618900A7
:1022F000416100218161C161016241628162C1620B
:10230000FEF73EFA20B14FF4C77104A001F034F893
:1023100010BD000000680040E40000202E2E2F5366
:1023200072632F6D61696E2E630000001CB5134847
:10233000134908600846FEF704FD20B140F29D11E4
:1023400010A001F019F800200090019000226946C9
:102350000B48FEF7C9FC20B14FF4D37109A001F07E
:102360000BF8102269460648FEF7BEFC20B14FF478
:10237000D67104A001F000F81CBD000000740040FC
:10238000280100202E2E2F5372632F6D61696E2E4F
:102390006300000000B587B000BF002001906348D3
:1023A000006840F00400614908600846006800F0D9
:1023B0000400019000BF00BF00BF0020019008464C
:1023C000006840F0200008600846006800F0200027
:1023D000019000BF00BF00BF0020019008460068C8
:1023E00040F0800008600846006800F0800001901E
:1023F00000BF00BF00BF002001900846006840F009
:10240000010008600846006800F00100019000BF6C
:1024100000BF00BF002001900846006840F00200A5
:1024200008600846006800F00200019000BF00BF8D
:1024300000BF002001900846006840F0400008609E
:102440000846006800F04000019000BF00BF00BFD8
:10245000002001900846006840F01000086008461F
:10246000006800F01000019000BF00BF00BF002016
:1024700001900846006840F00800086008460068BF
:1024800000F00800019000BF00BF00224FF47E4121
:102490002748FEF795FD002207212648FEF790FD0C
:1024A0004FF47E400290012003900020049005909C
:1024B00002A91F48FEF784FC072002900120039028
:1024C00000200490059002A91A48FEF779FC4FF409
:1024D000FC70029000200390049002A91548FEF7BA
:1024E0006FFCC020029000200390049002A91248C3
:1024F000FEF766FC4FF4007002900220039000206B
:1025000004900590069002A90B48FEF759FC4FF481
:1025100080700290022003900020049005900690A5
:1025200002A90648FEF74CFC07B000BD3038024057
:10253000001402400018024000080240000002405F
:1025400000B595B04248434908600020486000212A
:1025500040488160C16001614161FFF70EFB20B11D
:1025600040F2C1113CA000F007FF4FF480501190E1
:1025700011A93848FFF77CFB20B140F2C71136A003
:1025800000F0FAFE3348FFF7FBFC20B140F2CB111C
:1025900031A000F0F1FE00200F9010900FA92D48FF
:1025A000FFF7BAFA20B14FF4E9712BA000F0E4FE76
:1025B00060200890002009900A900B900C900D90DC
:1025C0000E90002208A92348FFF756FC20B14FF4D3
:1025D000EF7121A000F0D0FE042208A91D48FFF7EA
:1025E0004BFC20B14FF4F1711BA000F0C5FE082296
:1025F00008A91848FFF740FC20B14FF4F37116A06A
:1026000000F0BAFE0C2208A91248FFF735FC20B1F1
:102610004FF4F57110A000F0AFFE00200190029081
:102620000390049005904FF400500690002007900E
:1026300001A90848FFF731FA20B14FF4FB7106A059
:1026400000F09AFE0348FFF7ADFB15B000BD000097
:10265000000001403C0100202E2E2F5372632F6D8D
:1026600061696E2E6300000000B58DB04FF08040B0
:102670003549086000204860002133488160C1600E
:102680000161FFF77AFA20B140F20B212FA000F090
:1026900073FE4FF48050099009A92B48FFF7E8FA20
:1026A00020B140F2112129A000F066FE2648FFF774
:1026B00067FC20B140F2152124A000F05DFE00204F
:1026C0000790089007A92048FFF726FA20B14FF499
:1026D00007711EA000F050FE6020009000200190C5
:1026E00002900490002269461748FFF7C5FB20B10D
:1026F00040F2252115A000F03FFE04226946124851
:10270000FFF7BAFB20B140F2292110A000F034FEFF
:10271000082269460C48FFF7AFFB20B140F22D219B
:102720000AA000F029FE0C2269460748FFF7A4FB27
:1027300020B140F2312105A000F01EFE0248FFF753
:1027400031FB0DB000BD0000780100202E2E2F536C
:1027500072632F6D61696E2E6300000000B58DB04D
:1027600035483649086000204860002133488160C0
:10277000C1600161FFF701FA20B140F2462130A0AB
:1027800000F0FAFD4FF48050099009A92B48FFF79B
:102790006FFA20B14FF4137129A000F0EDFD274826
:1027A000FFF7EEFB20B14FF4147125A000F0E4FD1B
:1027B00000200790089007A92048FFF7ADF920B145
:1027C00040F257211EA000F0D7FD602000900020AD
:1027D000019002900490002269461848FFF74CFBD4
:1027E00020B14FF4187116A000F0C6FD042269460E
:1027F0001248FFF741FB20B14FF4197110A000F00F
:10280000BBFD082269460D48FFF736FB20B14FF4A7
:102810001A710BA000F0B0FD0C2269460748FFF7C3
:102820002BFB20B14FF41B7105A000F0A5FD034860
:10283000FFF7B8FA0DB000BD00040040B40100205D
:102840002E2E2F5372632F6D61696E2E6300000070
:1028500000B58DB035483649086000204860002139
:1028600033488160C1600161FFF787F920B140F210
:10287000812130A000F080FD4FF48050099009A91B
:102880002B48FFF7F5F920B140F2872129A000F08D
:1028900073FD2748FFF774FB20B140F28B2125A080
:1028A00000F06AFD00200790089007A92048FFF774
:1028B00033F920B140F292211EA000F05DFD6020AE
:1028C0000090002001900290049000226946184870
:1028D000FFF7D2FA20B140F29B2116A000F04CFD88
:1028E000042269461248FFF7C7FA20B140F29F213F
:1028F00010A000F041FD082269460D48FFF7BCFA20
:1029000020B140F2A3210BA000F036FD0C22694655
:102910000748FFF7B1FA20B140F2A72105A000F067
:102920002BFD0348FFF73EFA0DB000BD0008004044
:10293000F00100202E2E2F5372632F6D61696E2ED1
:102940006300000010B50C480C4908604FF4E130FA
:102950004860002109488160C16001610C2141612A
:1029600000218161C161FFF726FB20B140F2BB214C
:1029700003A000F001FD10BD001001402C0200205A
:102980002E2E2F5372632F6D61696E2E630000002F
:1029900010B50C480C4908604FF4E1304860002144
:1029A00009488160C16001610C21416100218161A0
:1029B000C161FFF700FB20B140F2CD2103A000F080
:1029C000DBFC10BD004400406C0200202E2E2F5373
:1029D00072632F6D61696E2E6300000010B50C48A4
:1029E0000C4908604FF4E1304860002109488160DB
:1029F000C16001610C21416100218161C161FFF76A
:102A0000DAFA20B140F2DF2103A000F0B5FC10BDDE
:102A100000480040AC0200202E2E2F5372632F6D11
:102A200061696E2E6300000010B50C480C49086007
:102A30004FF4E1304860002109488160C1600161C4
:102A40000C21416100218161C161FFF7B4FA20B11D
:102A500040F2F12103A000F08FFC10BD00140140F2
:102A6000EC0200202E2E2F5372632F6D61696E2EA3
:102A70006300000000BFFEE77FB505460C46002658
:102A8000002007E035F81010C1F307210DF81010F1
:102A9000411CC8B20828F5DB002007E015F810201B
:102AA0004100491C0DF80120411CC8B20828F5DB83
:102AB0004FF40070206060600020A060E06008209B
:102AC0002061002006E01DF8002004F114010A54E2
:102AD000411CC8B20828F6DB01210F48FDF7A8FF0A
:102AE00000B1012640F2FF1020606060002008E085
:102AF00000F108011DF8012004F114010A54411CE1
:102B0000C8B20828F4DB01210348FDF791FF00B1AA
:102B10000226304604B070BDA000002070470000BF
:102B200002480068C0F30220704700000CED00E08E
:102B300010B5002807DA0A07140E054A00F00F0343
:102B40001B1FD45403E00A07130E024A135410BD8E
:102B500018ED00E000E400E07047704710B5FEF7A4
:102B60003BFAFEF796FF10BD10B596B000BF0020EF
:102B700000903D48006840F080503B49086008469E
:102B8000006800F08050009000BF00BF00BF002030
:102B900000903648006840F4804034490860084698
:102BA000006800F48040009000BF00BF01200A9040
:102BB00000040B9002201090410511910421129104
:102BC0008021139102211491042115910AA8FEF786
:102BD00029FD18B1F72126A000F0CEFB0F200590AB
:102BE00002200690002007904FF4A05008904FF468
:102BF00080500990042105A8FEF776FB20B14FF420
:102C000082711BA000F0B8FB01200190C02002904F
:102C10000221039101A8FEF797FA20B14FF48671C3
:102C200013A000F0A9FB4FF080624FF4C001002018
:102C3000FEF798FC4FF0806211010120FEF792FC34
:102C4000FEF712FC4FF47A71B0FBF1F42046FEF768
:102C500006FF0420FEF7EEFE00221146501EFEF78E
:102C600020FA16B010BD000040380240007000404D
:102C70002E2E2F5372632F6D61696E2E630000003C
:102C80001448006840F47000124908601248006857
:102C900040F001001049086000200F490831086029
:102CA0000D4800680D4908400B4908600C48091D93
:102CB0000860081F006820F48020091F08600020B9
:102CC00005490C3108604FF0006002498039086006
:102CD0007047000088ED00E000380240FFFFF6FE7C
:102CE00010300024002202682C4B98420ED0B0F124
:102CF000804F0BD02A4B984208D02A4B984205D0DF
:102D0000294B984202D0294B984201D1012300E07F
:102D100000231BB122F070024B681A431F4B9842EC
:102D200020D0B0F1804F1DD01D4B98421AD01D4BC2
:102D3000984217D01C4B984214D01C4B984211D08B
:102D40001B4B98420ED01B4B98420BD01A4B98420B
:102D500008D01A4B984205D0194B984202D0194B13
:102D6000984201D1012300E000231BB122F44072FC
:102D7000CB681A4302608B68C3620B688362074B9F
:102D8000984202D0094B984201D1012300E0002370
:102D90000BB10B69036301234361704700000140DD
:102DA0000004004000080040000C00400004014006
:102DB000004001400044014000480140001800402C
:102DC000001C00400020004030B50C460021816806
:102DD00021F47F4142EA032525432943816030BD28
:102DE0000A460021816821F0700142F0070319436F
:102DF0008160704730B5002400220023056A25F069
:102E000001050562026A4368846924F0700424F0B5
:102E100003040D682C4322F002028D682A430F4DF3
:102E2000A84202D00E4DA84201D1012500E00025A4
:102E30006DB122F00802CD682A4322F0040223F487
:102E4000807323F400734D692B438D692B434360DA
:102E500084614D684563026230BD0000000001409E
:102E60000004014030B5002400220023056A25F04B
:102E700010050562026A4368846924F4E04424F47E
:102E800040740D6844EA052422F020028D6842EA6D
:102E90000512104DA84202D00F4DA84201D10125C4
:102EA00000E0002585B122F08002CD6842EA0512DB
:102EB00022F0400223F4806323F400634D6943EA67
:102EC00085038D6943EA8503436084614D688563AA
:102ED000026230BD000001400004014030B5002412
:102EE00000220023056A25F480750562026A4368A2
:102EF000C46924F0700424F003040D682C4322F408
:102F000000728D6842EA0522104DA84202D0104D91
:102F1000A84201D1012500E0002585B122F400621C
:102F2000CD6842EA052222F4806223F4805323F420
:102F300000534D6943EA05138D6943EA0513436065
:102F4000C4614D68C563026230BD000000000140ED
:102F50000004014030B5002200230024056A25F456
:102F600080550562036A4468C26922F4E04222F493
:102F700040720D6842EA052223F400538D6843EA4B
:102F800005330A4DA84202D0094DA84201D10125BE
:102F900000E0002525B124F480444D6944EA8514FD
:102FA0004460C2614D680564036230BD00000140A9
:102FB0000004014030B50B46144600210022026A8D
:102FC000056A25F001050562816921F0F00141EAF9
:102FD000041122F00A021A438161026230BD30B549
:102FE0000B46144600210022056A25F010050562F3
:102FF0008169026A21F4704141EA043122F0A002A1
:1030000042EA03128161026230BD00002DE9F04105
:10301000044600252068056925F44055E06805430D
:10302000206805612068C56849F20C608543216904
:10303000A068084361690843E169084305432068C3
:10304000C5602068456925F44075A069054320687E
:103050004561E069B0F5004F7ED1C44920688842DF
:1030600003D0C349206888425DD1FEF713FA00EB14
:10307000C00101EB001061684900B0FBF1F0642170
:10308000B0FBF1F00601FEF705FA00EBC00101EB21
:10309000001061684900B0FBF1F7FEF7FBF900EBA7
:1030A000C00101EB001061684900B0FBF1F0642140
:1030B000B0FBF1F000EBC00101EB0010A7EB8000CA
:1030C000322101EBC0006421B0FBF1F000F0F80008
:1030D00006EB4006FEF7DEF900EBC00101EB001045
:1030E00061684900B0FBF1F7FEF7D4F900EBC001CD
:1030F00001EB001061684900B0FBF1F06421B0FB06
:10310000F1F000EBC00101EB0010A7EB80003221D1
:1031100001EBC0006421B0FBF1F000F00700304487
:103120002168886020E1FEF7A5F900EBC00101EB02
:10313000001061684900B0FBF1F06421B0FBF1F0D0
:103140000601FEF797F900EBC00101EB0010616882
:103150004900B0FBF1F700E045E0FEF78BF900EB2A
:10316000C00101EB001061684900B0FBF1F064217F
:10317000B0FBF1F000EBC00101EB0010A7EB800009
:10318000322101EBC0006421B0FBF1F000F0F80047
:1031900006EB4006FEF76EF900EBC00101EB0010F4
:1031A00061684900B0FBF1F7FEF764F900EBC0017C
:1031B00001EB001061684900B0FBF1F06421B0FB45
:1031C000F1F000EBC00101EB0010A7EB8000322111
:1031D00001EBC0006421B0FBF1F000F007003044C7
:1031E00021688860C0E061492068884203D0604956
:1031F000206888425CD1FEF74DF900EBC00101EB7D
:10320000001061688900B0FBF1F6FEF743F900EBAE
:10321000C00101EB001061688900B0FBF1F064218E
:10322000B0FBF1F000EBC00101EB0010A6EB800059
:10323000322101EB00106421B0FBF1F000F0F00648
:10324000FEF728F900EBC00101EB0010616889006E
:10325000B0FBF1F06421B0FBF1F006EB0016FEF7D5
:1032600019F900EBC00101EB001061688900B0FBA7
:10327000F1F7FEF70FF900EBC00101EB00106168F8
:103280008900B0FBF1F06421B0FBF1F000EBC0016C
:1032900001EB0010A7EB8000322101EB001064214C
:1032A000B0FBF1F000F00F003044216888605BE073
:1032B000FEF7E0F800EBC00101EB00106168890047
:1032C000B0FBF1F6FEF7D6F800EBC00101EB001001
:1032D00061688900B0FBF1F06421B0FBF1F000EB14
:1032E000C00101EB0010A6EB8000322101EB0010C1
:1032F0006421B0FBF1F000F0F006FEF7BBF800EB44
:10330000C00101EB001061688900B0FBF1F064219D
:10331000B0FBF1F006EB0016FEF7ACF800EBC001D5
:1033200001EB001061688900B0FBF1F7FEF7A2F82D
:1033300000EBC00101EB001061688900B0FBF1F007
:103340006421B0FBF1F000EBC00101EB0010A7EB32
:103350008000322101EB00106421B0FBF1F000F09D
:103360000F00304421688860BDE8F0810010014002
:103370000014014000BFFEE700BFFEE702E008C8FE
:10338000121F08C1002AFAD170477047002001E0DF
:1033900001C1121F002AFBD170470000AEB0FDF73B
:1033A00023FEFFF7E1FBFEF7F5FFFEF7E7FEFEF772
:1033B00025FFFEF763FFFEF78DFFFEF7B7FFFFF770
:1033C000BFF8FFF751F9FFF7C9F9FFF741FAFFF727
:1033D000B9FAFFF7DDFAFFF701FBFFF725FB27A896
:1033E0002C4908631EA8486315A82B4948630EA8FA
:1033F0000863002009900A9001200B90002004909F
:1034000005904FF6FF70069007900020089001206D
:103410000C900E200D9004A91F48FDF72DF937E000
:103420001E48B0F90000B0F5804F09DA1C4800884A
:1034300030B91A480088401C00B2184908801DE0C5
:103440001648B0F9000010F5804F0ADD14480088D6
:10345000012806D111480088401E00B20F4908809B
:103460000CE00E48B0F90000B0F5804F03D1012008
:103470000B49088002E00020094908800748B0F99C
:103480000000ADF800000448016B6846FFF7F4FA4D
:10349000C6E70000E4000020A00000200800002093
:1034A0000A000020000000000000000001020304E8
:1034B000060708090000000001020304DC340008CC
:1034C00000000020100000007C330008EC340008ED
:1034D00010000020200700008C33000800000000CE
:0C34E0000024F4000000000000000000C8
:040000050800018965
:00000001FF
